{
  "_format": "hh-sol-artifact-1",
  "contractName": "PayeeContract",
  "sourceName": "contracts/payer.sol",
  "abi": [
    {
      "inputs": [
        {
          "internalType": "address[]",
          "name": "initialPayees",
          "type": "address[]"
        }
      ],
      "stateMutability": "nonpayable",
      "type": "constructor"
    },
    {
      "stateMutability": "payable",
      "type": "fallback"
    },
    {
      "inputs": [
        {
          "internalType": "uint256",
          "name": "amount",
          "type": "uint256"
        }
      ],
      "name": "addBalance",
      "outputs": [],
      "stateMutability": "payable",
      "type": "function"
    },
    {
      "inputs": [
        {
          "internalType": "address",
          "name": "newPayee",
          "type": "address"
        }
      ],
      "name": "addPayee",
      "outputs": [],
      "stateMutability": "nonpayable",
      "type": "function"
    },
    {
      "inputs": [],
      "name": "getAllPayees",
      "outputs": [
        {
          "internalType": "address[]",
          "name": "",
          "type": "address[]"
        }
      ],
      "stateMutability": "view",
      "type": "function"
    },
    {
      "inputs": [],
      "name": "payableFunction",
      "outputs": [],
      "stateMutability": "payable",
      "type": "function"
    },
    {
      "inputs": [
        {
          "internalType": "address",
          "name": "payee",
          "type": "address"
        }
      ],
      "name": "removePayee",
      "outputs": [],
      "stateMutability": "nonpayable",
      "type": "function"
    },
    {
      "inputs": [
        {
          "internalType": "uint256",
          "name": "amount",
          "type": "uint256"
        },
        {
          "internalType": "address[]",
          "name": "to",
          "type": "address[]"
        }
      ],
      "name": "sendEth",
      "outputs": [],
      "stateMutability": "nonpayable",
      "type": "function"
    },
    {
      "stateMutability": "payable",
      "type": "receive"
    }
  ],
  "bytecode": "0x60806040523480156200001157600080fd5b506040516200131738038062001317833981810160405281019062000037919062000334565b33600160006101000a81548173ffffffffffffffffffffffffffffffffffffffff021916908373ffffffffffffffffffffffffffffffffffffffff16021790555080600090805190602001906200009092919062000098565b505062000385565b82805482825590600052602060002090810192821562000114579160200282015b82811115620001135782518260006101000a81548173ffffffffffffffffffffffffffffffffffffffff021916908373ffffffffffffffffffffffffffffffffffffffff16021790555091602001919060010190620000b9565b5b50905062000123919062000127565b5090565b5b808211156200014257600081600090555060010162000128565b5090565b6000604051905090565b600080fd5b600080fd5b600080fd5b6000601f19601f8301169050919050565b7f4e487b7100000000000000000000000000000000000000000000000000000000600052604160045260246000fd5b620001aa826200015f565b810181811067ffffffffffffffff82111715620001cc57620001cb62000170565b5b80604052505050565b6000620001e162000146565b9050620001ef82826200019f565b919050565b600067ffffffffffffffff82111562000212576200021162000170565b5b602082029050602081019050919050565b600080fd5b600073ffffffffffffffffffffffffffffffffffffffff82169050919050565b6000620002558262000228565b9050919050565b620002678162000248565b81146200027357600080fd5b50565b60008151905062000287816200025c565b92915050565b6000620002a46200029e84620001f4565b620001d5565b90508083825260208201905060208402830185811115620002ca57620002c962000223565b5b835b81811015620002f75780620002e2888262000276565b845260208401935050602081019050620002cc565b5050509392505050565b600082601f8301126200031957620003186200015a565b5b81516200032b8482602086016200028d565b91505092915050565b6000602082840312156200034d576200034c62000150565b5b600082015167ffffffffffffffff8111156200036e576200036d62000155565b5b6200037c8482850162000301565b91505092915050565b610f8280620003956000396000f3fe6080604052600436106100595760003560e01c80633ed35855146100625780634a6a74071461008b57806369c6958b14610095578063d91921ed146100be578063dce59c00146100da578063f938d13b1461010357610060565b3661006057005b005b34801561006e57600080fd5b50610089600480360381019061008491906107b9565b61012e565b005b61009361034e565b005b3480156100a157600080fd5b506100bc60048036038101906100b79190610975565b610350565b005b6100d860048036038101906100d391906109d1565b61043a565b005b3480156100e657600080fd5b5061010160048036038101906100fc91906107b9565b61050f565b005b34801561010f57600080fd5b50610118610605565b6040516101259190610abc565b60405180910390f35b600160009054906101000a900473ffffffffffffffffffffffffffffffffffffffff1673ffffffffffffffffffffffffffffffffffffffff163373ffffffffffffffffffffffffffffffffffffffff16146101be576040517f08c379a00000000000000000000000000000000000000000000000000000000081526004016101b590610b3b565b60405180910390fd5b60005b60008054905081101561034a578173ffffffffffffffffffffffffffffffffffffffff16600082815481106101f9576101f8610b5b565b5b9060005260206000200160009054906101000a900473ffffffffffffffffffffffffffffffffffffffff1673ffffffffffffffffffffffffffffffffffffffff160361033757600060016000805490506102539190610bb9565b8154811061026457610263610b5b565b5b9060005260206000200160009054906101000a900473ffffffffffffffffffffffffffffffffffffffff16600082815481106102a3576102a2610b5b565b5b9060005260206000200160006101000a81548173ffffffffffffffffffffffffffffffffffffffff021916908373ffffffffffffffffffffffffffffffffffffffff16021790555060008054806102fd576102fc610bed565b5b6001900381819060005260206000200160006101000a81549073ffffffffffffffffffffffffffffffffffffffff0219169055905561034a565b808061034290610c1c565b9150506101c1565b5050565b565b600160009054906101000a900473ffffffffffffffffffffffffffffffffffffffff1673ffffffffffffffffffffffffffffffffffffffff163373ffffffffffffffffffffffffffffffffffffffff16146103e0576040517f08c379a00000000000000000000000000000000000000000000000000000000081526004016103d790610cd6565b60405180910390fd5b60008151836103ef9190610d25565b905060005b8251811015610434576104218284838151811061041457610413610b5b565b5b6020026020010151610693565b808061042c90610c1c565b9150506103f4565b50505050565b600160009054906101000a900473ffffffffffffffffffffffffffffffffffffffff1673ffffffffffffffffffffffffffffffffffffffff163373ffffffffffffffffffffffffffffffffffffffff16146104ca576040517f08c379a00000000000000000000000000000000000000000000000000000000081526004016104c190610da2565b60405180910390fd5b80341461050c576040517f08c379a000000000000000000000000000000000000000000000000000000000815260040161050390610e0e565b60405180910390fd5b50565b600160009054906101000a900473ffffffffffffffffffffffffffffffffffffffff1673ffffffffffffffffffffffffffffffffffffffff163373ffffffffffffffffffffffffffffffffffffffff161461059f576040517f08c379a000000000000000000000000000000000000000000000000000000000815260040161059690610e7a565b60405180910390fd5b6000819080600181540180825580915050600190039060005260206000200160009091909190916101000a81548173ffffffffffffffffffffffffffffffffffffffff021916908373ffffffffffffffffffffffffffffffffffffffff16021790555050565b6060600080548060200260200160405190810160405280929190818152602001828054801561068957602002820191906000526020600020905b8160009054906101000a900473ffffffffffffffffffffffffffffffffffffffff1673ffffffffffffffffffffffffffffffffffffffff168152602001906001019080831161063f575b5050505050905090565b6000808273ffffffffffffffffffffffffffffffffffffffff16846040516106ba90610ecb565b60006040518083038185875af1925050503d80600081146106f7576040519150601f19603f3d011682016040523d82523d6000602084013e6106fc565b606091505b509150915081610741576040517f08c379a000000000000000000000000000000000000000000000000000000000815260040161073890610f2c565b60405180910390fd5b50505050565b6000604051905090565b600080fd5b600080fd5b600073ffffffffffffffffffffffffffffffffffffffff82169050919050565b60006107868261075b565b9050919050565b6107968161077b565b81146107a157600080fd5b50565b6000813590506107b38161078d565b92915050565b6000602082840312156107cf576107ce610751565b5b60006107dd848285016107a4565b91505092915050565b6000819050919050565b6107f9816107e6565b811461080457600080fd5b50565b600081359050610816816107f0565b92915050565b600080fd5b6000601f19601f8301169050919050565b7f4e487b7100000000000000000000000000000000000000000000000000000000600052604160045260246000fd5b61086a82610821565b810181811067ffffffffffffffff8211171561088957610888610832565b5b80604052505050565b600061089c610747565b90506108a88282610861565b919050565b600067ffffffffffffffff8211156108c8576108c7610832565b5b602082029050602081019050919050565b600080fd5b60006108f16108ec846108ad565b610892565b90508083825260208201905060208402830185811115610914576109136108d9565b5b835b8181101561093d578061092988826107a4565b845260208401935050602081019050610916565b5050509392505050565b600082601f83011261095c5761095b61081c565b5b813561096c8482602086016108de565b91505092915050565b6000806040838503121561098c5761098b610751565b5b600061099a85828601610807565b925050602083013567ffffffffffffffff8111156109bb576109ba610756565b5b6109c785828601610947565b9150509250929050565b6000602082840312156109e7576109e6610751565b5b60006109f584828501610807565b91505092915050565b600081519050919050565b600082825260208201905092915050565b6000819050602082019050919050565b610a338161077b565b82525050565b6000610a458383610a2a565b60208301905092915050565b6000602082019050919050565b6000610a69826109fe565b610a738185610a09565b9350610a7e83610a1a565b8060005b83811015610aaf578151610a968882610a39565b9750610aa183610a51565b925050600181019050610a82565b5085935050505092915050565b60006020820190508181036000830152610ad68184610a5e565b905092915050565b600082825260208201905092915050565b7f4f6e6c7920746865206f776e65722063616e2072656d6f766520706179656573600082015250565b6000610b25602083610ade565b9150610b3082610aef565b602082019050919050565b60006020820190508181036000830152610b5481610b18565b9050919050565b7f4e487b7100000000000000000000000000000000000000000000000000000000600052603260045260246000fd5b7f4e487b7100000000000000000000000000000000000000000000000000000000600052601160045260246000fd5b6000610bc4826107e6565b9150610bcf836107e6565b9250828203905081811115610be757610be6610b8a565b5b92915050565b7f4e487b7100000000000000000000000000000000000000000000000000000000600052603160045260246000fd5b6000610c27826107e6565b91507fffffffffffffffffffffffffffffffffffffffffffffffffffffffffffffffff8203610c5957610c58610b8a565b5b600182019050919050565b7f4f6e6c7920746865206f776e65722063616e2063616c6c20746869732066756e60008201527f6374696f6e000000000000000000000000000000000000000000000000000000602082015250565b6000610cc0602583610ade565b9150610ccb82610c64565b604082019050919050565b60006020820190508181036000830152610cef81610cb3565b9050919050565b7f4e487b7100000000000000000000000000000000000000000000000000000000600052601260045260246000fd5b6000610d30826107e6565b9150610d3b836107e6565b925082610d4b57610d4a610cf6565b5b828204905092915050565b7f4f6e6c7920746865206f776e65722063616e206164642062616c616e63650000600082015250565b6000610d8c601e83610ade565b9150610d9782610d56565b602082019050919050565b60006020820190508181036000830152610dbb81610d7f565b9050919050565b7f416d6f756e7420646f6573206e6f74206d617463682076616c75652073656e74600082015250565b6000610df8602083610ade565b9150610e0382610dc2565b602082019050919050565b60006020820190508181036000830152610e2781610deb565b9050919050565b7f4f6e6c7920746865206f776e65722063616e2061646420706179656573000000600082015250565b6000610e64601d83610ade565b9150610e6f82610e2e565b602082019050919050565b60006020820190508181036000830152610e9381610e57565b9050919050565b600081905092915050565b50565b6000610eb5600083610e9a565b9150610ec082610ea5565b600082019050919050565b6000610ed682610ea8565b9150819050919050565b7f4661696c656420746f2073656e64204574686572000000000000000000000000600082015250565b6000610f16601483610ade565b9150610f2182610ee0565b602082019050919050565b60006020820190508181036000830152610f4581610f09565b905091905056fea2646970667358221220c941a7b0a277d280c0946a989e8e9e891928302ab84efd990970a232c5f7e8c564736f6c63430008110033",
  "linkReferences": {},
  "deployedLinkReferences": {}
}