{
  "_format": "hh-sol-artifact-1",
  "contractName": "PayeeContract",
  "sourceName": "contracts/payer.sol",
  "abi": [
    {
      "inputs": [
        {
          "internalType": "address[]",
          "name": "initialPayees",
          "type": "address[]"
        }
      ],
      "stateMutability": "nonpayable",
      "type": "constructor"
    },
    {
      "stateMutability": "payable",
      "type": "fallback"
    },
    {
      "inputs": [
        {
          "internalType": "uint256",
          "name": "amount",
          "type": "uint256"
        }
      ],
      "name": "addBalance",
      "outputs": [],
      "stateMutability": "payable",
      "type": "function"
    },
    {
      "inputs": [
        {
          "internalType": "address",
          "name": "newPayee",
          "type": "address"
        }
      ],
      "name": "addPayee",
      "outputs": [],
      "stateMutability": "nonpayable",
      "type": "function"
    },
    {
      "inputs": [],
      "name": "getAllPayees",
      "outputs": [
        {
          "internalType": "address[]",
          "name": "",
          "type": "address[]"
        }
      ],
      "stateMutability": "view",
      "type": "function"
    },
    {
      "inputs": [],
      "name": "payableFunction",
      "outputs": [],
      "stateMutability": "payable",
      "type": "function"
    },
    {
      "inputs": [
        {
          "internalType": "address",
          "name": "payee",
          "type": "address"
        }
      ],
      "name": "removePayee",
      "outputs": [],
      "stateMutability": "nonpayable",
      "type": "function"
    },
    {
      "inputs": [
        {
          "internalType": "uint256",
          "name": "amount",
          "type": "uint256"
        },
        {
          "internalType": "address[]",
          "name": "to",
          "type": "address[]"
        }
      ],
      "name": "sendEth",
      "outputs": [],
      "stateMutability": "nonpayable",
      "type": "function"
    },
    {
      "stateMutability": "payable",
      "type": "receive"
    }
  ],
  "bytecode": "0x60806040523480156200001157600080fd5b506040516200121b3803806200121b833981810160405281019062000037919062000334565b33600160006101000a81548173ffffffffffffffffffffffffffffffffffffffff021916908373ffffffffffffffffffffffffffffffffffffffff16021790555080600090805190602001906200009092919062000098565b505062000385565b82805482825590600052602060002090810192821562000114579160200282015b82811115620001135782518260006101000a81548173ffffffffffffffffffffffffffffffffffffffff021916908373ffffffffffffffffffffffffffffffffffffffff16021790555091602001919060010190620000b9565b5b50905062000123919062000127565b5090565b5b808211156200014257600081600090555060010162000128565b5090565b6000604051905090565b600080fd5b600080fd5b600080fd5b6000601f19601f8301169050919050565b7f4e487b7100000000000000000000000000000000000000000000000000000000600052604160045260246000fd5b620001aa826200015f565b810181811067ffffffffffffffff82111715620001cc57620001cb62000170565b5b80604052505050565b6000620001e162000146565b9050620001ef82826200019f565b919050565b600067ffffffffffffffff82111562000212576200021162000170565b5b602082029050602081019050919050565b600080fd5b600073ffffffffffffffffffffffffffffffffffffffff82169050919050565b6000620002558262000228565b9050919050565b620002678162000248565b81146200027357600080fd5b50565b60008151905062000287816200025c565b92915050565b6000620002a46200029e84620001f4565b620001d5565b90508083825260208201905060208402830185811115620002ca57620002c962000223565b5b835b81811015620002f75780620002e2888262000276565b845260208401935050602081019050620002cc565b5050509392505050565b600082601f8301126200031957620003186200015a565b5b81516200032b8482602086016200028d565b91505092915050565b6000602082840312156200034d576200034c62000150565b5b600082015167ffffffffffffffff8111156200036e576200036d62000155565b5b6200037c8482850162000301565b91505092915050565b610e8680620003956000396000f3fe6080604052600436106100595760003560e01c80633ed35855146100625780634a6a74071461008b57806369c6958b14610095578063d91921ed146100be578063dce59c00146100da578063f938d13b1461010357610060565b3661006057005b005b34801561006e57600080fd5b5061008960048036038101906100849190610729565b61012e565b005b61009361034e565b005b3480156100a157600080fd5b506100bc60048036038101906100b791906108e5565b610350565b005b6100d860048036038101906100d39190610941565b61043a565b005b3480156100e657600080fd5b5061010160048036038101906100fc9190610729565b61047f565b005b34801561010f57600080fd5b50610118610575565b6040516101259190610a2c565b60405180910390f35b600160009054906101000a900473ffffffffffffffffffffffffffffffffffffffff1673ffffffffffffffffffffffffffffffffffffffff163373ffffffffffffffffffffffffffffffffffffffff16146101be576040517f08c379a00000000000000000000000000000000000000000000000000000000081526004016101b590610aab565b60405180910390fd5b60005b60008054905081101561034a578173ffffffffffffffffffffffffffffffffffffffff16600082815481106101f9576101f8610acb565b5b9060005260206000200160009054906101000a900473ffffffffffffffffffffffffffffffffffffffff1673ffffffffffffffffffffffffffffffffffffffff160361033757600060016000805490506102539190610b29565b8154811061026457610263610acb565b5b9060005260206000200160009054906101000a900473ffffffffffffffffffffffffffffffffffffffff16600082815481106102a3576102a2610acb565b5b9060005260206000200160006101000a81548173ffffffffffffffffffffffffffffffffffffffff021916908373ffffffffffffffffffffffffffffffffffffffff16021790555060008054806102fd576102fc610b5d565b5b6001900381819060005260206000200160006101000a81549073ffffffffffffffffffffffffffffffffffffffff0219169055905561034a565b808061034290610b8c565b9150506101c1565b5050565b565b600160009054906101000a900473ffffffffffffffffffffffffffffffffffffffff1673ffffffffffffffffffffffffffffffffffffffff163373ffffffffffffffffffffffffffffffffffffffff16146103e0576040517f08c379a00000000000000000000000000000000000000000000000000000000081526004016103d790610c46565b60405180910390fd5b60008151836103ef9190610c95565b905060005b8251811015610434576104218284838151811061041457610413610acb565b5b6020026020010151610603565b808061042c90610b8c565b9150506103f4565b50505050565b80341461047c576040517f08c379a000000000000000000000000000000000000000000000000000000000815260040161047390610d12565b60405180910390fd5b50565b600160009054906101000a900473ffffffffffffffffffffffffffffffffffffffff1673ffffffffffffffffffffffffffffffffffffffff163373ffffffffffffffffffffffffffffffffffffffff161461050f576040517f08c379a000000000000000000000000000000000000000000000000000000000815260040161050690610d7e565b60405180910390fd5b6000819080600181540180825580915050600190039060005260206000200160009091909190916101000a81548173ffffffffffffffffffffffffffffffffffffffff021916908373ffffffffffffffffffffffffffffffffffffffff16021790555050565b606060008054806020026020016040519081016040528092919081815260200182805480156105f957602002820191906000526020600020905b8160009054906101000a900473ffffffffffffffffffffffffffffffffffffffff1673ffffffffffffffffffffffffffffffffffffffff16815260200190600101908083116105af575b5050505050905090565b6000808273ffffffffffffffffffffffffffffffffffffffff168460405161062a90610dcf565b60006040518083038185875af1925050503d8060008114610667576040519150601f19603f3d011682016040523d82523d6000602084013e61066c565b606091505b5091509150816106b1576040517f08c379a00000000000000000000000000000000000000000000000000000000081526004016106a890610e30565b60405180910390fd5b50505050565b6000604051905090565b600080fd5b600080fd5b600073ffffffffffffffffffffffffffffffffffffffff82169050919050565b60006106f6826106cb565b9050919050565b610706816106eb565b811461071157600080fd5b50565b600081359050610723816106fd565b92915050565b60006020828403121561073f5761073e6106c1565b5b600061074d84828501610714565b91505092915050565b6000819050919050565b61076981610756565b811461077457600080fd5b50565b60008135905061078681610760565b92915050565b600080fd5b6000601f19601f8301169050919050565b7f4e487b7100000000000000000000000000000000000000000000000000000000600052604160045260246000fd5b6107da82610791565b810181811067ffffffffffffffff821117156107f9576107f86107a2565b5b80604052505050565b600061080c6106b7565b905061081882826107d1565b919050565b600067ffffffffffffffff821115610838576108376107a2565b5b602082029050602081019050919050565b600080fd5b600061086161085c8461081d565b610802565b9050808382526020820190506020840283018581111561088457610883610849565b5b835b818110156108ad57806108998882610714565b845260208401935050602081019050610886565b5050509392505050565b600082601f8301126108cc576108cb61078c565b5b81356108dc84826020860161084e565b91505092915050565b600080604083850312156108fc576108fb6106c1565b5b600061090a85828601610777565b925050602083013567ffffffffffffffff81111561092b5761092a6106c6565b5b610937858286016108b7565b9150509250929050565b600060208284031215610957576109566106c1565b5b600061096584828501610777565b91505092915050565b600081519050919050565b600082825260208201905092915050565b6000819050602082019050919050565b6109a3816106eb565b82525050565b60006109b5838361099a565b60208301905092915050565b6000602082019050919050565b60006109d98261096e565b6109e38185610979565b93506109ee8361098a565b8060005b83811015610a1f578151610a0688826109a9565b9750610a11836109c1565b9250506001810190506109f2565b5085935050505092915050565b60006020820190508181036000830152610a4681846109ce565b905092915050565b600082825260208201905092915050565b7f4f6e6c7920746865206f776e65722063616e2072656d6f766520706179656573600082015250565b6000610a95602083610a4e565b9150610aa082610a5f565b602082019050919050565b60006020820190508181036000830152610ac481610a88565b9050919050565b7f4e487b7100000000000000000000000000000000000000000000000000000000600052603260045260246000fd5b7f4e487b7100000000000000000000000000000000000000000000000000000000600052601160045260246000fd5b6000610b3482610756565b9150610b3f83610756565b9250828203905081811115610b5757610b56610afa565b5b92915050565b7f4e487b7100000000000000000000000000000000000000000000000000000000600052603160045260246000fd5b6000610b9782610756565b91507fffffffffffffffffffffffffffffffffffffffffffffffffffffffffffffffff8203610bc957610bc8610afa565b5b600182019050919050565b7f4f6e6c7920746865206f776e65722063616e2063616c6c20746869732066756e60008201527f6374696f6e000000000000000000000000000000000000000000000000000000602082015250565b6000610c30602583610a4e565b9150610c3b82610bd4565b604082019050919050565b60006020820190508181036000830152610c5f81610c23565b9050919050565b7f4e487b7100000000000000000000000000000000000000000000000000000000600052601260045260246000fd5b6000610ca082610756565b9150610cab83610756565b925082610cbb57610cba610c66565b5b828204905092915050565b7f416d6f756e7420646f6573206e6f74206d617463682076616c75652073656e74600082015250565b6000610cfc602083610a4e565b9150610d0782610cc6565b602082019050919050565b60006020820190508181036000830152610d2b81610cef565b9050919050565b7f4f6e6c7920746865206f776e65722063616e2061646420706179656573000000600082015250565b6000610d68601d83610a4e565b9150610d7382610d32565b602082019050919050565b60006020820190508181036000830152610d9781610d5b565b9050919050565b600081905092915050565b50565b6000610db9600083610d9e565b9150610dc482610da9565b600082019050919050565b6000610dda82610dac565b9150819050919050565b7f4661696c656420746f2073656e64204574686572000000000000000000000000600082015250565b6000610e1a601483610a4e565b9150610e2582610de4565b602082019050919050565b60006020820190508181036000830152610e4981610e0d565b905091905056fea2646970667358221220453bab4b6a95c8a76a6ee4264fdf74e69c90e787b4b7be4774add69bfc655e8964736f6c63430008110033",
  "linkReferences": {},
  "deployedLinkReferences": {}
}