{
  "_format": "hh-sol-artifact-1",
  "contractName": "test_this",
  "sourceName": "contracts/test_output.sol",
  "abi": [
    {
      "inputs": [
        {
          "internalType": "address[]",
          "name": "newStudents",
          "type": "address[]"
        }
      ],
      "name": "addNewStudents",
      "outputs": [
        {
          "internalType": "address[]",
          "name": "",
          "type": "address[]"
        },
        {
          "internalType": "string",
          "name": "",
          "type": "string"
        }
      ],
      "stateMutability": "payable",
      "type": "function"
    }
  ],
  "bytecode": "0x608060405234801561001057600080fd5b5061062b806100206000396000f3fe60806040526004361061001e5760003560e01c80634c1e578a14610023575b600080fd5b61003d60048036038101906100389190610388565b610054565b60405161004b92919061050e565b60405180910390f35b60608060005b83518110156100f357600084828151811061007857610077610545565b5b60200260200101519080600181540180825580915050600190039060005260206000200160009091909190916101000a81548173ffffffffffffffffffffffffffffffffffffffff021916908373ffffffffffffffffffffffffffffffffffffffff16021790555080806100eb906105ad565b91505061005a565b5060008080548060200260200160405190810160405280929190818152602001828054801561017757602002820191906000526020600020905b8160009054906101000a900473ffffffffffffffffffffffffffffffffffffffff1673ffffffffffffffffffffffffffffffffffffffff168152602001906001019080831161012d575b505050505090506040518060400160405280601b81526020017f53747564656e7473206164646564207375636365737366756c6c79000000000081525091509150915091565b6000604051905090565b600080fd5b600080fd5b600080fd5b6000601f19601f8301169050919050565b7f4e487b7100000000000000000000000000000000000000000000000000000000600052604160045260246000fd5b61021f826101d6565b810181811067ffffffffffffffff8211171561023e5761023d6101e7565b5b80604052505050565b60006102516101bd565b905061025d8282610216565b919050565b600067ffffffffffffffff82111561027d5761027c6101e7565b5b602082029050602081019050919050565b600080fd5b600073ffffffffffffffffffffffffffffffffffffffff82169050919050565b60006102be82610293565b9050919050565b6102ce816102b3565b81146102d957600080fd5b50565b6000813590506102eb816102c5565b92915050565b60006103046102ff84610262565b610247565b905080838252602082019050602084028301858111156103275761032661028e565b5b835b81811015610350578061033c88826102dc565b845260208401935050602081019050610329565b5050509392505050565b600082601f83011261036f5761036e6101d1565b5b813561037f8482602086016102f1565b91505092915050565b60006020828403121561039e5761039d6101c7565b5b600082013567ffffffffffffffff8111156103bc576103bb6101cc565b5b6103c88482850161035a565b91505092915050565b600081519050919050565b600082825260208201905092915050565b6000819050602082019050919050565b610406816102b3565b82525050565b600061041883836103fd565b60208301905092915050565b6000602082019050919050565b600061043c826103d1565b61044681856103dc565b9350610451836103ed565b8060005b83811015610482578151610469888261040c565b975061047483610424565b925050600181019050610455565b5085935050505092915050565b600081519050919050565b600082825260208201905092915050565b60005b838110156104c95780820151818401526020810190506104ae565b60008484015250505050565b60006104e08261048f565b6104ea818561049a565b93506104fa8185602086016104ab565b610503816101d6565b840191505092915050565b600060408201905081810360008301526105288185610431565b9050818103602083015261053c81846104d5565b90509392505050565b7f4e487b7100000000000000000000000000000000000000000000000000000000600052603260045260246000fd5b7f4e487b7100000000000000000000000000000000000000000000000000000000600052601160045260246000fd5b6000819050919050565b60006105b8826105a3565b91507fffffffffffffffffffffffffffffffffffffffffffffffffffffffffffffffff82036105ea576105e9610574565b5b60018201905091905056fea264697066735822122004b99aa12512e62c3e6421e7e6151b41345cf58deff04ac9fc62c278d6bd9cec64736f6c63430008110033",
  "linkReferences": {},
  "deployedLinkReferences": {}
}