{
  "_format": "hh-sol-artifact-1",
  "contractName": "UniswapV2SwapExamples",
  "sourceName": "contracts/uniswap.sol",
  "abi": [
    {
      "inputs": [
        {
          "internalType": "uint256",
          "name": "amountIn",
          "type": "uint256"
        },
        {
          "internalType": "uint256",
          "name": "amountOutMin",
          "type": "uint256"
        }
      ],
      "name": "swapMultiHopExactAmountIn",
      "outputs": [
        {
          "internalType": "uint256",
          "name": "amountOut",
          "type": "uint256"
        }
      ],
      "stateMutability": "nonpayable",
      "type": "function"
    },
    {
      "inputs": [
        {
          "internalType": "uint256",
          "name": "amountOutDesired",
          "type": "uint256"
        },
        {
          "internalType": "uint256",
          "name": "amountInMax",
          "type": "uint256"
        }
      ],
      "name": "swapMultiHopExactAmountOut",
      "outputs": [
        {
          "internalType": "uint256",
          "name": "amountOut",
          "type": "uint256"
        }
      ],
      "stateMutability": "nonpayable",
      "type": "function"
    },
    {
      "inputs": [
        {
          "internalType": "uint256",
          "name": "amountIn",
          "type": "uint256"
        },
        {
          "internalType": "uint256",
          "name": "amountOutMin",
          "type": "uint256"
        }
      ],
      "name": "swapSingleHopExactAmountIn",
      "outputs": [
        {
          "internalType": "uint256",
          "name": "amountOut",
          "type": "uint256"
        }
      ],
      "stateMutability": "nonpayable",
      "type": "function"
    },
    {
      "inputs": [
        {
          "internalType": "uint256",
          "name": "amountOutDesired",
          "type": "uint256"
        },
        {
          "internalType": "uint256",
          "name": "amountInMax",
          "type": "uint256"
        }
      ],
      "name": "swapSingleHopExactAmountOut",
      "outputs": [
        {
          "internalType": "uint256",
          "name": "amountOut",
          "type": "uint256"
        }
      ],
      "stateMutability": "nonpayable",
      "type": "function"
    }
  ],
  "bytecode": "0x6080604052737a250d5630b4cf539739df2c5dacb4c659f2488d6000806101000a81548173ffffffffffffffffffffffffffffffffffffffff021916908373ffffffffffffffffffffffffffffffffffffffff16021790555073c02aaa39b223fe8d0a0e5c4f27ead9083c756cc2600160006101000a81548173ffffffffffffffffffffffffffffffffffffffff021916908373ffffffffffffffffffffffffffffffffffffffff160217905550736b175474e89094c44da98b954eedeac495271d0f600260006101000a81548173ffffffffffffffffffffffffffffffffffffffff021916908373ffffffffffffffffffffffffffffffffffffffff16021790555034801561010e57600080fd5b506116368061011e6000396000f3fe608060405234801561001057600080fd5b506004361061004c5760003560e01c80633dfd8f8514610051578063a00edeff14610081578063da8458df146100b1578063e4767777146100e1575b600080fd5b61006b6004803603810190610066919061112f565b610111565b604051610078919061117e565b60405180910390f35b61009b6004803603810190610096919061112f565b61054a565b6040516100a8919061117e565b60405180910390f35b6100cb60048036038101906100c6919061112f565b6109e6565b6040516100d8919061117e565b60405180910390f35b6100fb60048036038101906100f6919061112f565b610d97565b604051610108919061117e565b60405180910390f35b6000600160009054906101000a900473ffffffffffffffffffffffffffffffffffffffff1673ffffffffffffffffffffffffffffffffffffffff166323b872dd3330856040518463ffffffff1660e01b8152600401610172939291906111da565b6020604051808303816000875af1158015610191573d6000803e3d6000fd5b505050506040513d601f19601f820116820180604052508101906101b59190611249565b50600160009054906101000a900473ffffffffffffffffffffffffffffffffffffffff1673ffffffffffffffffffffffffffffffffffffffff1663095ea7b360008054906101000a900473ffffffffffffffffffffffffffffffffffffffff16846040518363ffffffff1660e01b8152600401610233929190611276565b6020604051808303816000875af1158015610252573d6000803e3d6000fd5b505050506040513d601f19601f820116820180604052508101906102769190611249565b506060600267ffffffffffffffff8111156102945761029361129f565b5b6040519080825280602002602001820160405280156102c25781602001602082028036833780820191505090505b50905073c02aaa39b223fe8d0a0e5c4f27ead9083c756cc2816000815181106102ee576102ed6112ce565b5b602002602001019073ffffffffffffffffffffffffffffffffffffffff16908173ffffffffffffffffffffffffffffffffffffffff1681525050736b175474e89094c44da98b954eedeac495271d0f81600181518110610351576103506112ce565b5b602002602001019073ffffffffffffffffffffffffffffffffffffffff16908173ffffffffffffffffffffffffffffffffffffffff168152505060008060009054906101000a900473ffffffffffffffffffffffffffffffffffffffff1673ffffffffffffffffffffffffffffffffffffffff16638803dbee86868533426040518663ffffffff1660e01b81526004016103ef9594939291906113bb565b6000604051808303816000875af115801561040e573d6000803e3d6000fd5b505050506040513d6000823e3d601f19601f820116820180604052508101906104379190611554565b9050838160008151811061044e5761044d6112ce565b5b6020026020010151101561052457600160009054906101000a900473ffffffffffffffffffffffffffffffffffffffff1673ffffffffffffffffffffffffffffffffffffffff1663a9059cbb33836000815181106104af576104ae6112ce565b5b6020026020010151876104c291906115cc565b6040518363ffffffff1660e01b81526004016104df929190611276565b6020604051808303816000875af11580156104fe573d6000803e3d6000fd5b505050506040513d601f19601f820116820180604052508101906105229190611249565b505b80600181518110610538576105376112ce565b5b60200260200101519250505092915050565b6000600260009054906101000a900473ffffffffffffffffffffffffffffffffffffffff1673ffffffffffffffffffffffffffffffffffffffff166323b872dd3330856040518463ffffffff1660e01b81526004016105ab939291906111da565b6020604051808303816000875af11580156105ca573d6000803e3d6000fd5b505050506040513d601f19601f820116820180604052508101906105ee9190611249565b50600260009054906101000a900473ffffffffffffffffffffffffffffffffffffffff1673ffffffffffffffffffffffffffffffffffffffff1663095ea7b360008054906101000a900473ffffffffffffffffffffffffffffffffffffffff16846040518363ffffffff1660e01b815260040161066c929190611276565b6020604051808303816000875af115801561068b573d6000803e3d6000fd5b505050506040513d601f19601f820116820180604052508101906106af9190611249565b506060600367ffffffffffffffff8111156106cd576106cc61129f565b5b6040519080825280602002602001820160405280156106fb5781602001602082028036833780820191505090505b509050736b175474e89094c44da98b954eedeac495271d0f81600081518110610727576107266112ce565b5b602002602001019073ffffffffffffffffffffffffffffffffffffffff16908173ffffffffffffffffffffffffffffffffffffffff168152505073c02aaa39b223fe8d0a0e5c4f27ead9083c756cc28160018151811061078a576107896112ce565b5b602002602001019073ffffffffffffffffffffffffffffffffffffffff16908173ffffffffffffffffffffffffffffffffffffffff168152505073a0b86991c6218b36c1d19d4a2e9eb0ce3606eb48816002815181106107ed576107ec6112ce565b5b602002602001019073ffffffffffffffffffffffffffffffffffffffff16908173ffffffffffffffffffffffffffffffffffffffff168152505060008060009054906101000a900473ffffffffffffffffffffffffffffffffffffffff1673ffffffffffffffffffffffffffffffffffffffff16638803dbee86868533426040518663ffffffff1660e01b815260040161088b9594939291906113bb565b6000604051808303816000875af11580156108aa573d6000803e3d6000fd5b505050506040513d6000823e3d601f19601f820116820180604052508101906108d39190611554565b905083816000815181106108ea576108e96112ce565b5b602002602001015110156109c057600260009054906101000a900473ffffffffffffffffffffffffffffffffffffffff1673ffffffffffffffffffffffffffffffffffffffff1663a9059cbb338360008151811061094b5761094a6112ce565b5b60200260200101518761095e91906115cc565b6040518363ffffffff1660e01b815260040161097b929190611276565b6020604051808303816000875af115801561099a573d6000803e3d6000fd5b505050506040513d601f19601f820116820180604052508101906109be9190611249565b505b806002815181106109d4576109d36112ce565b5b60200260200101519250505092915050565b6000600260009054906101000a900473ffffffffffffffffffffffffffffffffffffffff1673ffffffffffffffffffffffffffffffffffffffff166323b872dd3330866040518463ffffffff1660e01b8152600401610a47939291906111da565b6020604051808303816000875af1158015610a66573d6000803e3d6000fd5b505050506040513d601f19601f82011682018060405250810190610a8a9190611249565b50600260009054906101000a900473ffffffffffffffffffffffffffffffffffffffff1673ffffffffffffffffffffffffffffffffffffffff1663095ea7b360008054906101000a900473ffffffffffffffffffffffffffffffffffffffff16856040518363ffffffff1660e01b8152600401610b08929190611276565b6020604051808303816000875af1158015610b27573d6000803e3d6000fd5b505050506040513d601f19601f82011682018060405250810190610b4b9190611249565b506060600367ffffffffffffffff811115610b6957610b6861129f565b5b604051908082528060200260200182016040528015610b975781602001602082028036833780820191505090505b509050736b175474e89094c44da98b954eedeac495271d0f81600081518110610bc357610bc26112ce565b5b602002602001019073ffffffffffffffffffffffffffffffffffffffff16908173ffffffffffffffffffffffffffffffffffffffff168152505073c02aaa39b223fe8d0a0e5c4f27ead9083c756cc281600181518110610c2657610c256112ce565b5b602002602001019073ffffffffffffffffffffffffffffffffffffffff16908173ffffffffffffffffffffffffffffffffffffffff168152505073a0b86991c6218b36c1d19d4a2e9eb0ce3606eb4881600281518110610c8957610c886112ce565b5b602002602001019073ffffffffffffffffffffffffffffffffffffffff16908173ffffffffffffffffffffffffffffffffffffffff168152505060008060009054906101000a900473ffffffffffffffffffffffffffffffffffffffff1673ffffffffffffffffffffffffffffffffffffffff166338ed173986868533426040518663ffffffff1660e01b8152600401610d279594939291906113bb565b6000604051808303816000875af1158015610d46573d6000803e3d6000fd5b505050506040513d6000823e3d601f19601f82011682018060405250810190610d6f9190611554565b905080600281518110610d8557610d846112ce565b5b60200260200101519250505092915050565b6000600160009054906101000a900473ffffffffffffffffffffffffffffffffffffffff1673ffffffffffffffffffffffffffffffffffffffff166323b872dd3330866040518463ffffffff1660e01b8152600401610df8939291906111da565b6020604051808303816000875af1158015610e17573d6000803e3d6000fd5b505050506040513d601f19601f82011682018060405250810190610e3b9190611249565b50600160009054906101000a900473ffffffffffffffffffffffffffffffffffffffff1673ffffffffffffffffffffffffffffffffffffffff1663095ea7b360008054906101000a900473ffffffffffffffffffffffffffffffffffffffff16856040518363ffffffff1660e01b8152600401610eb9929190611276565b6020604051808303816000875af1158015610ed8573d6000803e3d6000fd5b505050506040513d601f19601f82011682018060405250810190610efc9190611249565b506060600267ffffffffffffffff811115610f1a57610f1961129f565b5b604051908082528060200260200182016040528015610f485781602001602082028036833780820191505090505b50905073c02aaa39b223fe8d0a0e5c4f27ead9083c756cc281600081518110610f7457610f736112ce565b5b602002602001019073ffffffffffffffffffffffffffffffffffffffff16908173ffffffffffffffffffffffffffffffffffffffff1681525050736b175474e89094c44da98b954eedeac495271d0f81600181518110610fd757610fd66112ce565b5b602002602001019073ffffffffffffffffffffffffffffffffffffffff16908173ffffffffffffffffffffffffffffffffffffffff168152505060008060009054906101000a900473ffffffffffffffffffffffffffffffffffffffff1673ffffffffffffffffffffffffffffffffffffffff166338ed173986868533426040518663ffffffff1660e01b81526004016110759594939291906113bb565b6000604051808303816000875af1158015611094573d6000803e3d6000fd5b505050506040513d6000823e3d601f19601f820116820180604052508101906110bd9190611554565b9050806001815181106110d3576110d26112ce565b5b60200260200101519250505092915050565b6000604051905090565b600080fd5b600080fd5b6000819050919050565b61110c816110f9565b811461111757600080fd5b50565b60008135905061112981611103565b92915050565b60008060408385031215611146576111456110ef565b5b60006111548582860161111a565b92505060206111658582860161111a565b9150509250929050565b611178816110f9565b82525050565b6000602082019050611193600083018461116f565b92915050565b600073ffffffffffffffffffffffffffffffffffffffff82169050919050565b60006111c482611199565b9050919050565b6111d4816111b9565b82525050565b60006060820190506111ef60008301866111cb565b6111fc60208301856111cb565b611209604083018461116f565b949350505050565b60008115159050919050565b61122681611211565b811461123157600080fd5b50565b6000815190506112438161121d565b92915050565b60006020828403121561125f5761125e6110ef565b5b600061126d84828501611234565b91505092915050565b600060408201905061128b60008301856111cb565b611298602083018461116f565b9392505050565b7f4e487b7100000000000000000000000000000000000000000000000000000000600052604160045260246000fd5b7f4e487b7100000000000000000000000000000000000000000000000000000000600052603260045260246000fd5b600081519050919050565b600082825260208201905092915050565b6000819050602082019050919050565b611332816111b9565b82525050565b60006113448383611329565b60208301905092915050565b6000602082019050919050565b6000611368826112fd565b6113728185611308565b935061137d83611319565b8060005b838110156113ae5781516113958882611338565b97506113a083611350565b925050600181019050611381565b5085935050505092915050565b600060a0820190506113d0600083018861116f565b6113dd602083018761116f565b81810360408301526113ef818661135d565b90506113fe60608301856111cb565b61140b608083018461116f565b9695505050505050565b600080fd5b6000601f19601f8301169050919050565b6114348261141a565b810181811067ffffffffffffffff821117156114535761145261129f565b5b80604052505050565b60006114666110e5565b9050611472828261142b565b919050565b600067ffffffffffffffff8211156114925761149161129f565b5b602082029050602081019050919050565b600080fd5b6000815190506114b781611103565b92915050565b60006114d06114cb84611477565b61145c565b905080838252602082019050602084028301858111156114f3576114f26114a3565b5b835b8181101561151c578061150888826114a8565b8452602084019350506020810190506114f5565b5050509392505050565b600082601f83011261153b5761153a611415565b5b815161154b8482602086016114bd565b91505092915050565b60006020828403121561156a576115696110ef565b5b600082015167ffffffffffffffff811115611588576115876110f4565b5b61159484828501611526565b91505092915050565b7f4e487b7100000000000000000000000000000000000000000000000000000000600052601160045260246000fd5b60006115d7826110f9565b91506115e2836110f9565b92508282039050818111156115fa576115f961159d565b5b9291505056fea2646970667358221220679f747fa08c1babed68488b565d8364e688c086e6238f37edee86a48f4ba52964736f6c63430008110033",
  "linkReferences": {},
  "deployedLinkReferences": {}
}